:100000000C94A1020C94E8020C94E8020C944503B1
:100010000C94E8020C94E8020C94E8020C94E802B8
:100020000C94E8020C94E8020C9433220C940523FF
:100030000C948D1D0C94E8020C94E8020C94E802D8
:100040000C94E8020C94E8020C94E8020C94E80288
:100050000C94E8020C94F51D0C94E8020C94E80250
:100060000C94E8020C94E8020C94E8020C94E80268
:100070000C94E8020C94E8020C94E8020C94E80258
:100080000C94E8020C94E8020C94E8020C94E80248
:100090000C94E8020C94E8020C94E8020C94E80238
:1000A0000C94E8020C94E8020C94E802CB06CD060E
:1000B000D806CF06D106D306D506D706DA06DC0663
:1000C000DE06E906E006E206E406E606E806EB06DA
:1000D0002214221454145414C015C015C015C01590
:1000E0009414C01541154115B015C015C015B915AA
:1000F0004E154E154E154E154E154E154E154E15E8
:100100004E154E154E154E154E154E154E154E15D7
:100110005D156B1572157915831543164316551623
:1001200055164C16551655165516431643165116A8
:10013000551655165116722399238B2499238B2417
:10014000E52308248B245E246D2429001E001F0053
:10015000200021002200000000002B0014001A00E3
:1001600008001500170000000000E400040016005D
:10017000070009000A0000000000E1001D001B004C
:10018000060019000500000000000041E000E20048
:10019000E3002C00000000000000230024002500E4
:1001A000260027002D002E002A001C0018000C003D
:1001B000120013002F00300031000B000D000E0064
:1001C0000F0033003400000028001100100036003A
:1001D00037003800E500520035002C00E300000035
:1001E00000410000500051004F0000003A003B0069
:1001F0003C003D003E0000000000C25CCD5CC55CE0
:10020000C75CC95C0000000000000000C35CC65C65
:10021000C85CCA5C00000000000000000000000094
:1002200000000000000000000000000000000000CE
:10023000000000000000000000003F0040004100FE
:1002400042004300440045000000000000000000A0
:1002500000000000000000000000500051005200AB
:100260004F0000000000000000000000000000003F
:1002700000000000000080000000000000000000FE
:1002800000000000BC008100BB0000047F3F1F6431
:100290003214643214783C1E1E140A0522232526CB
:1002A00028292A2C2D2F3032333536383A3B3D3E23
:1002B0004042434547494A4C4E5051535557595A6D
:1002C0005C5E6062646668696B6D6F717375777987
:1002D0007B7D7F81838587898A8C8E909294969886
:1002E0009A9C9E9FA1A3A5A7A8AAACAEAFB1B3B498
:1002F000B6B8B9BBBCBEBFC1C2C3C5C6C7C9CACBED
:10030000CCCDCED0D1D2D2D3D4D5D6D7D7D8D9D9B7
:10031000DADADBDBDBDCDCDCDCDCDDDDDDDDDCDC20
:10032000DCDCDCDBDBDBDADAD9D9D8D7D7D6D5D43D
:10033000D3D2D2D1D0CECDCCCBCAC9C7C6C5C3C209
:10034000C1BFBEBCBBB9B8B6B4B3B1AFAEACAAA85E
:10035000A7A5A3A19F9E9C9A98969492908E8C8A12
:1003600089878583817F7D7B79777573716F6D6BED
:100370006968666462605E5C5A5957555351504EC5
:100380004C4A4947454342403E3D3B3A3836353377
:1003900032302F2D2C2A292826252322FFAA7F55EB
:1003A0004000000000000000000000010101010108
:1003B000010101010202020202020202030303031D
:1003C00003030304040404040505050505060606E5
:1003D000060607070707080808080909090A0A0A9C
:1003E0000B0B0B0C0C0C0D0D0D0E0E0E0F0F101039
:1003F00010111112121313141415151616171718BD
:100400001819191A1A1B1C1C1D1D1E1F1F20212123
:1004100022232324252526272828292A2B2C2C2D66
:100420002E2F30313132333435363738393A3B3C80
:100430003D3E3F404142434445464748494B4C4D71
:100440004E4F50525354555758595A5C5D5E606137
:1004500063646567686A6B6C6E6F717274767779C6
:100460007A7C7D7F8182848687898B8D8E90929421
:100470009597999B9D9FA1A2A4A6A8AAACAEB0B245
:10048000B4B6B9BBBDBFC1C3C5C8CACCCED0D3D525
:10049000D7DADCDEE1E3E6E8EAEDEFF2F4F7F9FCC7
:1004A000FF0403300000000E034D0069006E00746D
:1004B0000036003000000010034500750063006145
:1004C000006C0079006E0000000403090409022298
:1004D00000010100A0FA0904000001030101000964
:1004E00021110100012240000705810308000A12C2
:1004F00001100100000008EDFE00000100010203F0
:100500000105010906A101050719E029E7150025E4
:100510000195087501810295017508810105081989
:100520000129059505750191029501750391010554
:1005300007190029FF150026FF00950675088100A0
:10054000C00011241FBECFEFDAE0DEBFCDBF04B67E
:1005500003FE27C08091540290915502A09156024B
:10056000B09157028730904BA740B04BD1F4109216
:10057000540210925502109256021092570214BE65
:1005800084B7877F84BF0FB6F894A89580916000E8
:10059000886180936000109260000FBEE0E0F8E395
:1005A000099511E0A0E0B1E0E8E8FAE402C00590A6
:1005B0000D92A435B107D9F722E0A4E5B1E001C05E
:1005C0001D92A435B207E1F70E94681F0C944225E2
:1005D0000C940000529A089552985A9A08955A9885
:1005E00008955A9A08950E94EF0280E28A95F1F7E1
:1005F0000C94F1020F931F93CF93DF93082FC8E061
:10060000D0E010E8812F802319F00E94F10202C08F
:100610000E94EF02169580E28A95F1F7219791F7F3
:10062000DF91CF911F910F910C94EF0227E02A9553
:10063000F1F700C098E080E020E12A95F1F729B1B8
:1006400022FB222720F9880F822B23E02A95F1F73D
:10065000000020E12A95F1F7915071F708958EE19D
:1006600090E04A9B02C00197E1F74A9BFECF0895B4
:100670000E94EA020C94F1020E94EC02EA9AE9E676
:10068000F0E080818F7C808308951F920F920FB6D7
:100690000F921124EF92FF921F932F933F934F934A
:1006A0005F936F937F938F939F93AF93BF93CF93FA
:1006B000DF93EF93FF930E94EA02C0E0D0E010E0E6
:1006C0000E94F302CE01865A9E4F7C01FC0180817C
:1006D0000E94FA02F7018081180F2196C530D105DA
:1006E00079F70E94F302812F0E94FA020E94F3021E
:1006F000F0E1FA95F1F70E94EF020E94EC0280E12E
:100700008A95F1F7C0E0D0E010E00E942F030E942C
:100710001603FE01EB5AFE4F80838081180F21964D
:10072000C530D10591F70E942F030E9416031817B8
:1007300021F080915401816003C0809154018E7F2B
:10074000809354010E942F03FF91EF91DF91CF918D
:10075000BF91AF919F918F917F916F915F914F91D9
:100760003F912F911F91FF90EF900F900FBE0F9030
:100770001F901895EF92FF921F93CF93DF93F894F9
:100780000E94EA020E94EF0285E08A95F1F70000DC
:100790000E94EC0290E29A95F1F74A9B08C00E94F1
:1007A000EA020E94F102789481E090E049C0C0E042
:1007B000D0E010E00E942F030E941603FE01E65ACB
:1007C000FE4F80838081180F2196C530D10591F7A7
:1007D0000E942F030E941603181741F00E94EA029C
:1007E0000E94F102789482E090E02AC00E942F03D8
:1007F000E0E2EA95F1F70E94EF020E94EA02F0E1DE
:10080000FA95F1F7C0E0D0E010E00E94F302CE01CB
:100810008B5A9E4F7C01FC0180810E94FA02F701F5
:100820008081180F2196C530D10579F70E94F30217
:10083000812F0E94FA020E94F302789480E090E0F7
:10084000DF91CF911F91FF90EF900895A5E2B1E065
:1008500041E050E08D91E82FE295EF70F0E021A1AA
:100860008F70BA0102C0660F771F8A95E2F7CB013D
:10087000962F9095922391A392A1892B82A371E048
:10088000AA32B70739F7089508950895809117029D
:1008900083608860809317020E942604ADE1B1E076
:1008A00041E050E08D91E82FE295EF70F0E021A15A
:1008B0008F70BA0102C0660F771F8A95E2F7CB01ED
:1008C000962F9095922391A392A1892B82A371E0F8
:1008D000A532B70739F7559A209AAFE5B1E0E9E6B6
:1008E000F1E08AE08E0F11921D928E13FCCF0E94D0
:1008F000CE05809373010C9430069F92AF92BF9205
:10090000CF92DF92EF92FF920F931F93CF93DF93DB
:1009100080910101811103C005E010E002C000E0F8
:1009200010E0A801415A5E4F7A01EA0185E2C82E23
:1009300081E0D82EAA24A394B12C25E0922E8AE23D
:10094000C81681E0D80609F448C0F60181916F010C
:10095000E82FE295EF70F0E021A18F70A50102C0B1
:10096000440F551F8A95E2F7CA01922F982B91A345
:1009700092A18095892382A350EA5A95F1F7EDE17F
:10098000F1E020E040E050E03191A32FA295AF705C
:10099000B0E090968C9190E03F7002C0959587955D
:1009A0003A95E2F780FD07C0C501042E01C0880F0B
:1009B0000A94EAF702C080E090E0282B4F5F5F4F77
:1009C0004830510509F78881821719F028839092E1
:1009D00000010E9426042196B2CF80910001882355
:1009E000E1F0815080930001882339F0EFE9FFE0C6
:1009F0003197F1F700C0000010C080E090E0FC01EA
:100A0000E00FF11FE759FE4FD701A80FB91F2C9136
:100A1000208301968530910591F781E0DF91CF9198
:100A20001F910F91FF90EF90DF90CF90BF90AF900C
:100A30009F900895CF93DF9380910101811103C0AE
:100A4000C0E0D0E002C0C5E0D0E00E94BA03009749
:100A500021F00297B1F4289814C0289A80E090E021
:100A6000FC01E65AFE4F2081FC01EC0FFD1FE75907
:100A7000FE4F208301968530910591F780E090E04C
:100A800002C081E090E0DF91CF9108950E947D0443
:100A900080910101811103C025E030E002C020E017
:100AA00030E080E090E0FC01E20FF31FE759FE4FD9
:100AB0004081FC01E65AFE4F408301968530910546
:100AC00091F7089580917301882309F441C00E9431
:100AD0007D0480910101811103C025E030E002C056
:100AE00020E030E080E090E0FC01E20FF31FE759E6
:100AF000FE4F4081FC01EB5AFE4F4083019685304A
:100B0000910591F70E941A05892BF1F05D9880916B
:100B100074018F5F809374018630A8F18091010188
:100B2000811103C020E030E002C025E030E080E029
:100B300090E0FC01E20FF31FE759FE4F108201968F
:100B400085309105B1F71FC05D9A109274011BC0EA
:100B50000E94460580910101811103C020E030E030
:100B600002C025E030E080E090E0FC01EB5AFE4F4F
:100B70004081FC01E20FF31FE759FE4F40830196CD
:100B80008530910591F70E94380681E00895E82F9D
:100B9000F0E0E759FE4F808108950895E8EDF0E018
:100BA0008081806180838AE18A95F1F700C080911D
:100BB000D900817008950E94CE05809301010E94A2
:100BC000CE05882319F00E94380302C00E943C031E
:100BD000789408950C94DB050C9444040C9445041B
:100BE0000C94F6050C943A0681E0089581E008958E
:100BF0001F93CF93DF9300D000D01F92CDB7DEB705
:100C000049835A832091970189819A81211112C0C9
:100C1000662349F00E94501B182F682F89819A8102
:100C20000E94F51A03C00E94241B182F69817A8143
:100C3000812F04C00E94501B69817A810F900F9010
:100C40000F900F900F90DF91CF911F910C94590846
:100C5000FC01408151816281738184810C94F8058B
:100C60000E94801C811102C00E94FA1C0C94EC05A9
:100C70000C94EE0508950C94F20508950E94331625
:100C80000E943D062FEF84E39CE02150804090407D
:100C9000E1F700C000000C941B1E0F931F93CF932D
:100CA000DF938C010E942806EC01B8010E94F00538
:100CB000882309F4F4C1B801CE010E94E31088230F
:100CC00009F4EDC1CA3CFCE5DF0741F4F80182817B
:100CD000882309F4E4C10E94790DE1C1CB3C8CE585
:100CE000D80708F00FC1C33C9CE5D90761F4F801AF
:100CF0008281882309F4D3C10E94D01B8272E1F063
:100D00000E94650FCCC1C43CECE5DE07C0F0C63CD8
:100D10009CE5D90709F4C7C008F0D9C0C43CFCE57C
:100D2000DF0709F0C8C0F8018281882309F4B7C140
:100D30000E94D01B827221F30E94580FB0C1C531AE
:100D4000FCE5DF0708F078C0C2308CE5D80708F46E
:100D500052C0F8018281882309F454C00E94801C8B
:100D6000811102C00E94FA1C0E94931C90E0909393
:100D7000460280934502FE01E350FC45E231F10555
:100D800030F4EA5AFF4F809145020C94E724809199
:100D90004502816027C0826025C0846023C08061D5
:100DA00021C080621FC080641DC080681BC0846039
:100DB000886018C08E7F16C08D7F14C08B7F12C0D4
:100DC0008F7E10C08F7D0EC08F7B0CC08F770AC0C6
:100DD0008B7F877F07C087FB222720F991E092272E
:100DE00090FB87F980934502809145020E94971CF1
:100DF0000E94331654C1C1159CE5D90751F0C1308A
:100E0000DC4579F0C801DF91CF911F910F910C94CF
:100E1000F405F8018281882309F441C10E943E064D
:100E20003EC1F8018281882309F439C180911702FB
:100E300081608093170233C1C631FCE5DF0739F5C5
:100E40000E94D01B282FF8018281409110015091FF
:100E50001101882379F02A7A91E009F490E09093C7
:100E60007501911102C069E201C065E3CA010E94E7
:100E70002E1D0AC080917501811102C069E201C076
:100E800065E3CA010E94301D0E941C1C08C1C23CBF
:100E9000DC4509F0B7CFF8018281882309F4FFC04F
:100EA0000E94730FFCC0F8018281882309F4F7C007
:100EB0000E943D0DF4C0C53CDC4509F0A3CFF8010C
:100EC0008281882309F4EBC00E94300DE8C0F8014C
:100ED0008281C83CFCE5DF0731F4882309F4DFC0D8
:100EE0000E945B0DDCC0C93CDC4530F4882309F46A
:100EF000D6C00E944C0DD3C0882309F4D0C00E94F4
:100F00006A0DCDC0C13DECE5DE0791F4F8018281A8
:100F1000882309F4C4C00E94B40B8F3028F00E94CB
:100F2000B40B843108F408CF8FE00E94680FB7C07B
:100F3000C23DFCE5DF0708F05AC0CD3C8CE5D80780
:100F400039F4F8018281882309F4A9C081E0EDCF4A
:100F5000CE3C9CE5D907C0F4CB3CECE5DE0741F480
:100F6000F8018281882309F49AC00E94BC0B97C0C3
:100F7000CC3CDC4509F046CFF8018281882309F496
:100F80008EC00E94CD0B8BC0F8018281CF3CFCE566
:100F9000DF0771F4882309F482C00E94B40B863005
:100FA00028F00E94B40B883008F4C6CE86E0BDCF8E
:100FB000C03DDC4570F4882309F471C00E94B40B75
:100FC000823028F00E94B40B853008F4B5CE82E060
:100FD000ACCF882309F463C00E94B40B893028F099
:100FE0000E94B40B8E3008F4A7CE89E09ECFC53D99
:100FF000ECE5DE0739F4F8018281882309F44FC05B
:1010000083E293CFC63DFCE5DF0740F5F80182811E
:10101000C33DFCE5DF0729F4882309F440C088E1DB
:1010200084CFC43DDC4568F48823C9F10E94B40B29
:10103000853128F00E94B40B873108F47DCE85E11C
:1010400074CF882361F10E94B40B893128F00E948B
:10105000B40B823208F470CE89E167CFCD3DECE568
:10106000DE0741F4F80182818823C9F082E00E9402
:10107000F61F15C0CE3DFCE5DF0739F4F80182818B
:10108000882369F00E94FA1C0AC0CC3DDC4509F0B7
:10109000B9CEF8018281882311F080E0E8CF80E0AA
:1010A000DF91CF911F910F91089580E090E0089516
:1010B0000895E72FF0E09AE0899FE00DF11D1124DB
:1010C00083E0EE0FFF1F8A95E1F7E60FF11DEE0FAB
:1010D000FF1FE65BFE4F859194910895880F991F3D
:1010E000FC01E657FD4F859194910895CF93DF93CE
:1010F0000E9459080E942D0AEC01811520E59207F3
:10110000F0F5811530E4930708F024C1883E91057D
:1011100000F5803E910508F09CC1883A910570F475
:10112000853A910508F09FC08130910509F491C17D
:1011300008F442C1049708F08CC13EC18F3B910571
:1011400008F49CC0803C910508F436C1805C91098C
:10115000F4C0811540E2940758F4C11581E0D80726
:1011600008F077C1C03FD10508F426C1D06571C130
:10117000811520E3920708F0E4C09F70DEC081155E
:1011800035E5930708F044C0811544E5940708F05D
:10119000F8C0C11582E5D80708F5C11521E5D207C9
:1011A00008F0DBC08C2F837021E030E002C0220FFA
:1011B000331F8A95E2F73C68CE0174E096958795D7
:1011C0007A95E1F78370382BCF70C695C69580E28B
:1011D000C89FE0011124C22BD32B3BC12C2F269595
:1011E0002695CE0183709927C115D34508F0BAC062
:1011F00040E2249F90011124C1E0D0E002C0CC0F56
:10120000DD1F8A95E2F72C2B3D2BE901DC6821C11B
:10121000811549E59407A0F4C11588E5D80708F0C1
:10122000B5C0C11526E5D20708F0C6C08C2F0E94B4
:10123000AA0A8F71C82FD0E0DC2FCC27D06209C159
:1012400081153AE5930708F4A6C09056811590429F
:1012500008F0B2C08D2F8F710E94AA0ADD27D062DC
:101260008F71D82BF6C0853A910509F4A8C0863A4B
:10127000910509F0A7C0C2E8D0E4EBC0883A910517
:1012800009F4A3C0893A910509F4A2C08A3A9105EC
:1012900009F4A1C08B3A910509F4A0C08C3A9105DC
:1012A00009F49FC08B3B910509F49EC08C3B9105CE
:1012B00009F49DC08D3A910509F49CC0803B9105CD
:1012C00009F49BC08E3A910509F49AC08F3A9105B2
:1012D00009F499C0813B910509F498C0823B9105BE
:1012E00009F497C0833B910509F496C0843B9105AE
:1012F00009F495C0853B910509F494C0863B91059E
:1013000009F493C0873B910509F492C0883B91058D
:1013100009F491C0893B910509F490C08D3B91057A
:1013200009F48FC08E3B910509F48EC08A3B91056C
:1013300009F48DC0C0E0D4E48CC00E946E08EC01BA
:1013400088C09927D3FF03C0EC01D86C82C0EC01A0
:10135000D06C7FC0DF70D06A7CC0DC2FCC27C16F1F
:10136000D06A77C040E2249F90011124C1E0D0E010
:1013700002C0CC0FDD1F8A95E2F7C22BD32BDA68AF
:1013800068C0D82FCC27C46FD06A63C0DC2FCC27AD
:10139000C06FD06A5EC08F700E94AA0A94E0D69592
:1013A000C7959A95E1F7CF70D0E0DC2FCC27D06AB3
:1013B0008F70806EC82B4DC0C0E0D0E04AC0C1E83D
:1013C000D0E447C0C3E8D0E444C0C2EED4E441C096
:1013D000C9EED4E43EC0CAEED4E43BC0C5EBD4E4CD
:1013E00038C0C6EBD4E435C0C3EBD4E432C0C4EBA0
:1013F000D4E42FC0C7EBD4E42CC0CCECD4E429C097
:10140000CDECD4E426C0C3E8D5E423C0CAE8D5E4D3
:1014100020C0C2E9D5E41DC0C4E9D5E41AC0C1E2C8
:10142000D6E417C0C3E2D6E414C0C4E2D6E411C0C7
:10143000C5E2D6E40EC0C6E2D6E40BC0C7E2D6E4ED
:1014400008C0CFE6D4E405C0C0E7D4E402C0CAE2D5
:10145000D6E4CE01DF91CF9108958238910549F10C
:10146000B0F48133910509F458C048F489329105EC
:1014700009F44EC08A32910509F454C008958533A9
:10148000910509F440C08933910599F00895833E90
:10149000910529F138F4803E910591F0823E910545
:1014A000A1F00895863E9105F9F0873E910531F14E
:1014B00008952091450220FD3AC021FD38C00895CD
:1014C0008091450280FD35C032C08091450282FF87
:1014D00032C08091450284FD30C083EE39C08091D6
:1014E000450282FD28C0F5CF8091450283FF27C0C9
:1014F0008091450284FD21C087EE2AC0809145027B
:1015000083FD1DC0F5CF8091450285FD1AC01BC02B
:101510008091450285FD17C014C08091450286FD6B
:1015200014C015C08091450286FD11C00EC080EE2A
:101530000FC089E30DC082EE0BC080E009C086EECB
:1015400007C089E205C085E303C08AE201C081E3E8
:1015500090E008959091450292FF0DC0282F2871C8
:10156000283019F4877F846006C0282F2471243026
:1015700011F48B7F886093FF0DC0282F28712831CC
:1015800019F4877E846106C0282F2471243111F458
:101590008B7E886194FD877E0895CF92DF92EF92D3
:1015A000FF920F931F93CF93DF93D62E472FE82FF1
:1015B000F82F711103C0682F782F7CC0072F10E01F
:1015C000E82EF12C26E0629FC0011124CFEFD0E07D
:1015D000BE010E94BF249B015BEA5603C001579FD6
:1015E000900D11248D0D911D8D0D911D982F990F2A
:1015F000980F6E01C01AD10AB701C69ED001C79ECE
:10160000B00DD69EB00D11248B2F949FA0011124F4
:10161000452F55277E01E41AF50AE69EA001E79EB4
:10162000500DF69E500D11246E01C91AD108C09EAE
:101630007001C19EF00CD09EF00C11240F2D1127CB
:10164000C01BD10BC69F8001C79F100DD69F100DE8
:101650001124712F2230310591F04CF42115310500
:10166000D9F021303105B1F47E2FE52F15C024309B
:10167000310561F044F02630310571F00BC0EB2FDD
:10168000812F7F2F09C0752FEB2F02C0E12F7B2FF9
:101690008F2F02C07B2F852FF0E0EF55FC4F649118
:1016A000E72FF0E0EF55FC4F7491E82FF0E0EF5595
:1016B000FC4F8491DF91CF911F910F91FF90EF909C
:1016C000DF90CF9008950895CF93DF93762FE901AF
:1016D000682F842F0E94CD0A698378838A83DF91E3
:1016E000CF91089580912402282F269530E021156E
:1016F000310519F48170826005C02532310524F06E
:101700008170886480932402089588E090E00C94AE
:101710000225CF93DF9300D000D0CDB7DEB7AB0169
:10172000BC0149835A836B837C830E94720B49817D
:101730005A816B817C8188E090E00F900F900F9030
:101740000F90DF91CF910C942025E4E2F2E083E04A
:10175000808311828FEF8283838314826081718101
:10176000828193810C94890B8091240280FF02C0B6
:101770008695089580E0089580912802833018F4BA
:101780008F5F8093280260912402709125028091DE
:101790002602909127020C94890B809128028823BD
:1017A00019F08150809328026091240270912502E3
:1017B00080912602909127020C94890B80917901E7
:1017C00023E0829FC0011124875D9D4F6091040139
:1017D00070E02091240220FD0DC020E030E0F901EE
:1017E000E75DFD4F1182108212822D5F3F4F28313D
:1017F0003105A9F70C9481109091240290FF0FC03D
:1018000020E030E0F901E75DFD4F81836083428392
:101810002D5F3F4F28313105A9F70C94DE0B089559
:10182000CF93DF9300D01F92CDB7DEB79091240203
:1018300090FF0AC09E012F5F3F4F0E94640B4B81B7
:1018400069818A810E94FC0B0F900F900F90DF91AD
:10185000CF910895CF93DF93EC01EC81F0E0E45653
:10186000FD4F4491E4E2F2E0628181810E94100C1C
:101870008C818F5F8C83DF91CF910895CF93DF931D
:10188000EC01E4E2F2E0438162818C810E94100C61
:101890008C818F5F8C83DF91CF9108950F931F937D
:1018A000CF93DF9300D01F92CDB7DEB78C0180912C
:1018B000760181110AC09E012F5F3F4F4FEF6FEFFE
:1018C0000E94640B8A8180937601F80184818130C3
:1018D00051F028F0823061F4409176010AC0809185
:1018E000760140E007C06091760140E080E003C0EF
:1018F00040E080E060E00E94FC0BF801248130E0D1
:10190000C901019663E070E00E94D32484830F90A4
:101910000F900F90DF91CF911F910F9108957F92BB
:101920008F929F92AF92BF92CF92DF92EF92FF92EF
:101930000F931F93CF93DF9300D01F92CDB7DEB7E5
:10194000182FD62E042FC22E9091240290FF6DC026
:10195000E92FE695AE2FB0E0A15DBE4F8C9180934C
:1019600081019E7F923061F49E012F5F3F4F812F56
:101970000E94640B4B8169818A810E94FC0B43C0E9
:10198000823019F4009127023EC0863019F410917C
:10199000250239C08930D9F38931A9F5E9512E2FB3
:1019A0002170722EE695F0E0E456FC4F85909490FD
:1019B00039E2A32E32E0B32EE12CF12C9924E89CDD
:1019C000C001E99C900DF89C900D112423E09695A0
:1019D00087952A95E1F7711002C0810F03C0212F6E
:1019E000281B822F9501402F6D2D0E94640B8FEFD5
:1019F000E81AF80A23E0A20EB11C88E0E816F10408
:101A0000F1F60E94DE0B10932502D092260200937D
:101A10002702CC2051F06091240270912502809120
:101A20002602909127020E94890B0F900F900F9031
:101A3000DF91CF911F910F91FF90EF90DF90CF90AA
:101A4000BF90AF909F908F907F900895E4E2F2E076
:101A50009181282F438162818AE0890F0C948F0C39
:101A600081E00C94260DE4E2F2E09181282F43817D
:101A7000628186EF890F0C948F0C81E00C94330DFA
:101A8000E4E2F2E0628121E1620F08F46FEF282FB7
:101A9000438181810C948F0C81E00C94400DE4E231
:101AA000F2E0628121E1621B08F460E0282F4381AB
:101AB00081810C948F0C81E00C944F0DE4E2F2E0F4
:101AC000438121E1420F08F44FEF282F6281818189
:101AD0000C948F0C81E00C945E0DE4E2F2E0438103
:101AE00021E1421B08F440E0282F628181810C949F
:101AF0008F0C81E00C946D0D20E00C948F0CEF9214
:101B0000FF921F93CF93DF93EC0189E2E82E82E0EE
:101B1000F82E10E08C8197014091270260912602F7
:101B2000810F0E94640B115E83E0E80EF11C183FE8
:101B300089F70E94DE0B8A819C8180FF02C09F5F33
:101B400001C091509C83DF91CF911F91FF90EF9046
:101B50000895AF92BF92CF92DF92EF92FF920F93D0
:101B60001F93CF93DF93FC01828180FF03C0BB24CE
:101B7000BA9402C0BB24B39429E2E22E22E0F22EF2
:101B80000BE212E0C0E0D0E0F80131971082F701DB
:101B90001082F801108294E0C92ED12CA12C8091E2
:101BA00078018A0D87FD885F082E000C990BC817F5
:101BB000D90791F4809127028C9DA0018D9D500D35
:101BC00011245595479555954795970160912602A3
:101BD000809125020E94640BAB0CF1E0CF1AD10872
:101BE000F1F6219683E0E80EF11C0D5F1F4FC8301F
:101BF000D10551F60E94DE0B8091780191E0B91277
:101C000006C0811102C087E006C0815004C090E088
:101C100001968770992780937801DF91CF911F916A
:101C20000F91FF90EF90DF90CF90BF90AF9008950D
:101C3000EF92FF920F931F93CF93DF9380E090E09A
:101C4000FC01E75DFD4F11821082128203968831FC
:101C50009105B1F789E2E82E82E0F82E0BE212E05E
:101C6000C0E0D0E080917701082E000C990BC817D6
:101C7000D90794F080910301082E000C990B8C1762
:101C80009D0754F0970140912702609126028091B0
:101C900025020E94640B07C0F80131971082F701FA
:101CA0001082F80110822196F3E0EF0EF11C0D5F17
:101CB0001F4FC830D105B1F60E94DE0B80910201A2
:101CC00090917701980F9093770120910301280F4D
:101CD00020930301121614F497301CF08195809321
:101CE0000201DF91CF911F910F91FF90EF90089526
:101CF000EF92FF920F931F93CF93DF93EC012C8110
:101D00003D812F5F3F4F217033273D832C8389E234
:101D1000E82E82E0F82E10E005E5812F86954C81B3
:101D20005D81480F511D842F8170970140912702DA
:101D300060912602809F802D11240E94640B1F5FFA
:101D400083E0E80EF11C183041F7DF91CF911F912D
:101D50000F91FF90EF900C94DE0BEF92FF920F9398
:101D60001F93CF93DF937C01C9E2D2E000E010E043
:101D7000F7018481043011051CF4882339F002C076
:101D8000811104C09E014091270202C09E0140E0E3
:101D900060912602809125020E94640B0F5F1F4F05
:101DA00023960830110521F70E94DE0BF7012481EC
:101DB00030E02F5F3F4F217033272483DF91CF9195
:101DC0001F910F91FF90EF900895E4E2F2E080817F
:101DD0008E7F808360817181828193810E94890BD3
:101DE000109282012FEF80E792E0215080409040D6
:101DF000E1F700C000000C94DE0B609124026695B0
:101E000070E04BE050E085E091E00E94ED24892BEA
:101E100019F481E0809382010E94BF1D90937B01A1
:101E200080937A0108959091240290FF35C09170BB
:101E3000811102C0926006C0853210F0986402C021
:101E4000880F982B90932402662351F0609124020E
:101E50007091250280912602909127020E94890BA1
:101E600060912402669570E04BE050E085E091E0DF
:101E70000E94ED24892B19F01092820102C00E9469
:101E8000FD0E81E080937D01409127026091260242
:101E9000809125020C947C0D0895682F9091240266
:101EA000969581E0890F853208F081E00C94130F3C
:101EB00081E00C944D0F682F9091240296958FEF3E
:101EC000890F09F484E20C94130F81E00C945B0FEA
:101ED00061E00C94130FE4E2F2E080818160808382
:101EE00086950C94680F8091240280FD0C94E50E79
:101EF0000C946B0F60E00C94130F809180018111A2
:101F000033C0809117028160809317020E94801C69
:101F1000811104C00E94FA1C0E94A50B0E94850B2F
:101F200060932402709325028093260290932702E7
:101F30006E7F61F40E94A50B0E94850B60932402C2
:101F40007093250280932602909327020E94720BC1
:101F5000109282018091240280FF03C086950E9426
:101F60007A0F81E08093800108950F931F93CF93A0
:101F7000DF9380918201882309F48CC080918101D4
:101F8000E0912402E695E81BE0937C01823049F45D
:101F9000F0E0E856FD4FE491CE2FD0E00AE21CE0DD
:101FA00049C0863049F4F0E0EB56FD4FE491CE2F66
:101FB000D0E00EE31CE03EC0893051F4E695F0E03D
:101FC000EE56FD4FE491CE2FD0E00FE71DE032C07A
:101FD0008F3051F4E695F0E0E157FD4FE491CE2FBC
:101FE000D0E009EA1DE026C0853149F4F0E0E4576D
:101FF000FD4FE491CE2FD0E008E11EE01BC08831F8
:1020000081F0833239F4EAE8F2E0C591D4910EE42C
:102010001CE010C0843251F4C4EFD1E00DEA1EE0A0
:1020200009C0C8EED3E008E71EE004C0C0EDD7E069
:1020300003E61BE080917D01882389F010927D01E9
:102040000E94BF1D9E0120953095820F931F909393
:102050007B0180937A0110927F0110927E01809122
:102060007A0190917B010E94CB1D8C179D0790F007
:10207000E0917A01F0917B01CE0FDF1FD0937B01BD
:10208000C0937A018AE791E0F801DF91CF911F9127
:102090000F910994DF91CF911F910F9108952BB16A
:1020A000342F309523233BB1432B3FB7F894FC01E9
:1020B000680F791FE617F70789F0819198E04BB90F
:1020C000000000C087FF2BB9880F000000C000C0CF
:1020D00000C02BB900C09A9591F7ECCF3FBF08958F
:1020E0002AB1242B2AB99B01220F331F620F731FC1
:1020F0000E944F1087EC90E00197F1F700C00000BC
:10210000089548E00C9470100F931F93CF93DF93C2
:10211000C62FD42F022FFC01828110E2160F8823D4
:10212000B9F0609385010E94BF1D90938401809354
:102130008301183008F042C0C77081E001C0880FE9
:10214000CA95EAF7DF91CF911F910F910C94DE139E
:10215000183048F481E0962F977001C0880F9A9547
:10216000EAF70E94E513809185018C1327C08091C6
:102170008301909184010E94CB1D84369105F0F477
:10218000C0E2CD0FC83048F481E09D2F977001C0A8
:10219000880F9A95EAF70E94DE13802F0E94D613CB
:1021A000C83060F4D77081E001C0880FDA95EAF793
:1021B000DF91CF911F910F910C94E513DF91CF9197
:1021C0001F910F9108959C01CB01203F4CE53407EE
:1021D00019F178F4283D4CE53407B9F0293D4CE578
:1021E000340731F1273D3C4531F526E241EE61EE01
:1021F0000FC0223F4CE53407B9F090F0233F3C4537
:10220000D1F427E246EE66EE03C027E245EE65EE26
:102210000E94841080E0089526E240EE60EEF8CF40
:1022200027E244EE64EEF4CF26E242EE62EEF0CF17
:1022300028E241E0ECCF1092850181E0089590936F
:102240008B0180938A010895E0918A01F0918B01BE
:10225000309721F00190F081E02D099480E00895FD
:10226000E0918A01F0918B01309721F00280F38197
:10227000E02D0994089520918801309189018217F9
:10228000930771F09093890180938801E0918A010E
:10229000F0918B01309721F00680F781E02D0994B1
:1022A000089520918601309187018217930771F07C
:1022B0009093870180938601E0918A01F0918B01D0
:1022C000309721F00084F185E02D0994089585B7B9
:1022D000806885BF85B7806885BF089508950C9490
:1022E0006E1108950C9471110E9467110E94EA0505
:1022F0000C946F1181E008950E94B61D0E9446045F
:102300000E943F1E0E947D0F0C947211CF92DF92AB
:10231000EF92FF920F931F93CF93DF93CDB7DEB76A
:102320002B970FB6F894DEBF0FBECDBF0E9462059B
:102330000E947A11811111C08FEF89838A831B82D9
:102340000E94BF1D8160782F9D838C8349815A81B3
:102350006B818D810E942C1256C08DE8C82E81E0C1
:10236000D82E00E010E0E02E802F0E94C705F60175
:1023700041916F01F42EF82631F40F5F1F4F0A30A0
:10238000110589F7D9CF9091170291FF04C08B876F
:102390000E94CD058B8520E030E04F2D50E0922F3C
:1023A000BA01022E02C0759567950A94E2F760FFA4
:1023B00024C02E83EF8221E030E0690102C0CC0C02
:1023C000DD1C9A95E2F790E08C219D21892B09F480
:1023D00020E028870E94BF1D8160782F9A87898717
:1023E0004E815F8168858A850E942C12F801E3572F
:1023F000FE4F8081C826C08206C02F5F3F4F283025
:10240000310569F6BACF10918C010E94241118177A
:10241000A1F00E94241180938C012B960FB6F894A2
:10242000DEBF0FBECDBFDF91CF911F910F91FF9007
:10243000EF90DF90CF900C943B062B960FB6F8945C
:10244000DEBF0FBECDBFDF91CF911F910F91FF90E7
:10245000EF90DF90CF900895CF93DF93CDB7DEB7A5
:102460002B970FB6F894DEBF0FBECDBF4F835887B2
:1024700069877A878B87DE01119686E0FD011192CC
:102480008A95E9F785E0FE01379601900D928A95CD
:10249000E1F749815A816B817C818D819E810E9407
:1024A000C5182B960FB6F894DEBF0FBECDBFDF91D7
:1024B000CF910895FC01808191810E94911B089524
:1024C000882309F413C1682F8238C1F40E942411B3
:1024D00081FD0CC169E380911001909111010E946E
:1024E0002E1D0E941C1C2FEF81EE94E02150804095
:1024F0009040E1F700C0000069E319C08338F9F4A7
:102500000E94241180FDF2C063E58091100190913A
:1025100011010E942E1D0E941C1C2FEF81EE94E0E1
:10252000215080409040E1F700C0000063E58091B9
:102530001001909111010E94301D0C941C1C8438D4
:10254000C1F40E94241182FDD1C067E48091100182
:10255000909111010E942E1D0E941C1C2FEF81EEF4
:1025600094E0215080409040E1F700C0000067E413
:10257000DECF8CEF860F813A38F480911001909174
:1025800011010E942E1DD9CF80E2860F883048F4B9
:10259000677081E001C0880F6A95EAF70E94D31B3B
:1025A000CCCF8BE5860F833070F4653A29F0663A1C
:1025B00031F083E890E005C081E890E002C082E855
:1025C00090E00C943B1188E5860F873108F08EC0AF
:1025D000683A09F445C0693A09F445C06A3A09F411
:1025E00045C06B3A09F445C06C3A09F445C06B3BF1
:1025F00009F445C06C3B09F445C06D3A09F445C087
:10260000603B09F445C06E3A09F445C06F3A09F4DD
:1026100045C0613B09F445C0623B09F445C0633BDA
:1026200009F445C0643B09F445C0653B09F445C065
:10263000663B09F445C0673B09F445C0683B09F4B3
:1026400045C0693B09F445C06D3B09F445C06E3B8C
:1026500009F445C06A3B09F445C080E090E044C0FD
:1026600082EE90E041C089EE90E03EC08AEE90E0BC
:102670003BC085EB90E038C086EB90E035C083EB43
:1026800090E032C084EB90E02FC087EB90E02CC04C
:102690008CEC90E029C08DEC90E026C083E891E0BE
:1026A00023C08AE891E020C082E991E01DC084E95E
:1026B00091E01AC081E292E017C083E292E014C078
:1026C00084E292E011C085E292E00EC086E292E0E0
:1026D0000BC087E292E008C08FE690E005C080E77B
:1026E00090E002C08AE292E00C9451110895882390
:1026F00009F45BC0682F823879F40E94241181FFAD
:1027000054C069E380911001909111010E942E1D27
:102710000E941C1C69E310C08338B1F40E9424118C
:1027200080FF43C063E580911001909111010E94E8
:102730002E1D0E941C1C63E58091100190911101D7
:102740000E94301D0C941C1C843879F40E942411C2
:1027500082FF2BC067E480911001909111010E94CB
:102760002E1D0E941C1C67E4E7CF8CEF860F813A78
:1027700018F380E2860F883048F4677081E001C06A
:10278000880F6A95EAF70E94D91BDCCF8BE5860F8C
:10279000833020F480E090E00C943B11685A67315C
:1027A00020F480E090E00C9451110895CF93C82F4D
:1027B0000E9460128C2FCF910C947713882321F004
:1027C0000E94D31B0C941C1C0895882321F00E94A6
:1027D000D91B0C941C1C08954F925F926F927F92AC
:1027E000BF92CF92DF92EF92FF920F931F93CF93FE
:1027F000DF937C01D62FC72FFC01158112951F7026
:10280000028101110E94F01B0E94C91B882379F0EC
:10281000002369F080E28D0F883048F082E00E944A
:10282000671C0E94C91B91E0B82EB92601C0B12CCB
:10283000CC2EC2948FE0C822D12CF601E859FF4F6C
:102840000C94E7248C2F807FCF70882311F0C295E1
:10285000C07F002399F0CC2309F46DC180E28D0F75
:10286000883010F0D11104C08C2F0E94D31B03C0FC
:102870008C2F0E94E31B0E941C1C5DC18D2F0E94A7
:102880007713CC2309F47CC180E28D0F883010F0DF
:10289000D11104C08C2F0E94D91B03C08C2F0E9421
:1028A000E91B0E941C1C6CC18C2F807FCF70803272
:1028B00011F0C295C07FDD2319F0D130C9F022C0DC
:1028C000002371F0112341F0113031F40E94031CF8
:1028D0008C2B0E94091C54C10E94031C8C2B1DC010
:1028E000112319F0113009F44BC10E94121C1AC0B7
:1028F000002321F0163008F043C10EC0153008F057
:102900003FC110C0002361F0112331F0F701858130
:1029100080FF11C18F7085838C2F0E94DE1330C120
:1029200011111AC18C2FC6C08C2F837009F050C0B2
:10293000011132C18D2F829586958770880F880F7F
:102940009D2F9F70492E512C612C712C082E04C094
:10295000440C551C661C771C0A94D2F7D4FF14C093
:102960000FE010E020E030E0B901A80104C0440FFE
:10297000551F661F771F8A95D2F7CB01BA01609564
:1029800070958095909503C060E070E0CB01C6958E
:10299000C695C370D0E0C230D10561F0C330D10517
:1029A00081F06429752986299729219771F00E9461
:1029B0000A1AF2C064297529862997290E941C1ACF
:1029C000EBC00E940A1AC301B2010E94F819E4C0C8
:1029D000002319F08C2F817001C08695882309F49B
:1029E000DBC08D2F829586958770880F880F9D2F6D
:1029F0009F70492E512C612C712C082E04C0440C60
:102A0000551C661C771C0A94D2F7D4FF14C00FE043
:102A100010E020E030E0B901A80104C0440F551FC8
:102A2000661F771F8A95D2F7CB01BA016095709522
:102A30008095909503C060E070E0CB01C695C69587
:102A4000C3704C2F50E04230510569F043305105BE
:102A500089F064297529862997294130510571F03B
:102A60000E94D01A99C064297529862997290E9445
:102A7000E21A92C00E94D01AC301B2010E94BE1A8B
:102A80008BC08D2F90E0FC01E05EF109E531F1058E
:102A900008F04DC0E858FF4F0C94E724DF708C2FEE
:102AA0008F71002321F00E94571A8D2F36CF0E947C
:102AB000781A8D2F0E94E51363C0002341F0153072
:102AC00008F05EC08C2F8F710E949D1A59C016307D
:102AD00008F056C0F7CF002339F08C2F8F710E9479
:102AE000571A4EC00023C9F38C2F8F710E94781A99
:102AF00047C0002329F08C2F8F710E94421A40C0DA
:102B00000E943D1A3DC0002349F0CF718C2F0E94D6
:102B1000571A63E08C2F0E94521C32C081E00E9441
:102B2000671C123068F182E00E94671C29C00023F4
:102B300031F0112391F28D2F0E94601221C01123D8
:102B400099F2D93349F45FEF67EE73E0515060407A
:102B50007040E1F700C000008D2F0E94771310C075
:102B60004C2F4F706D2FC7010E9455080E946919A4
:102B700017C04C2F4F706D2FC7010E94580810C00E
:102B800088E0C816D10441F05CF0EAE0CE1AD10822
:102B9000F2E0CF16D10420F40E9424110E943B06DB
:102BA000BB20F1F00E94C51B80FD1AC0F701128204
:102BB0000E94BF1B0E94571AC7010E94FE150E9467
:102BC000BF1BDF91CF911F910F91FF90EF90DF908E
:102BD000CF90BF907F906F905F904F900C94781A39
:102BE000DF91CF911F910F91FF90EF90DF90CF90E9
:102BF000BF907F906F905F904F9008950F931F93B9
:102C0000CF93DF93EC01888199812B813C81232B29
:102C1000B9F09F3F11F48F3F99F0CE010E944D060D
:102C2000882371F0688179818A810E949C1B8C01C4
:102C30000E94F41A0E94F519B801CE010E94EC130B
:102C4000DF91CF911F910F9108950E94F01B0E9478
:102C5000001C0C941C1C80911001909111010E9489
:102C6000321D0C9425160E94E01B0C942B16E92FA4
:102C7000E295EF70F0E03297EE30F105B0F4E357F3
:102C8000FF4F0C94E724803F91F018F4803E68F4E5
:102C90000EC0843F51F40BC0803E48F0813F29F4C0
:102CA00006C093FB882780F9089580E0089581E0AD
:102CB00008950E94911B0E9437160895CF93DF93C9
:102CC00000D000D01F92CDB7DEB70F900F900F90BD
:102CD0000F900F90DF91CF910895CF93DF9300D0A5
:102CE00000D000D0CDB7DEB726960FB6F894DEBF81
:102CF0000FBECDBFDF91CF9108951F93CF93DF9388
:102D0000C091980116E080919901C81799F0D0E020
:102D10001C9FF0011D9FF00D1124E656FE4F4081CF
:102D2000518162817381848195810E946D16219603
:102D3000C770E9CFDF91CF911F9108954091CA01EB
:102D40005091CB016091CC017091CD018091CE0169
:102D50009091CF010C946D168091CF0182958F7068
:102D600009F054C08091CC01882309F44FC08091B0
:102D70009801A09199016091CA017091CB01409195
:102D8000CD015091CE01B6E08A1709F43FC090E022
:102D900041155105C1F17F3F11F46F3FA1F1B89F7B
:102DA000F001B99FF00D1124E656FE4F21817213F8
:102DB0002AC02081621327C02281211124C02381CF
:102DC00034812417350710F421503109241B350BA9
:102DD00024363105C0F42091CF012F70206120935B
:102DE000CF0126E0289FF001299FF00D1124E15624
:102DF000FE4F80818F70806180838AEC91E00E9419
:102E0000FE150C947D1601968770BECF0895CF9263
:102E1000DF92EF92FF920F931F93CF93DF93CDB783
:102E2000DEB762970FB6F894DEBF0FBECDBF7C0150
:102E300085E0F701DE011D9601900D928A95E1F77C
:102E4000D7014C9111965C91119712966C91129743
:102E50001396CD90DC9014973091CA017091CB01FC
:102E60008091CD019091CE01009709F453C17F3F2D
:102E700019F43F3F09F44EC10091CC01002309F43D
:102E8000CBC02091CF01C816D90628F0F601E81B67
:102E9000F90BCF0104C0809590958C0D9D1D11E01C
:102EA0008436910578F010E0207F09F0D2C07C2DA7
:102EB000D98AC88A89890E945E168AEC91E00E94AC
:102EC000FE15BDC0822F807F09F046C0751314C067
:102ED000341312C0611110C02F7020612093CF01F4
:102EE0000E949E168AEC91E00E94FE158091CF010F
:102EF000D70115968C932EC0CD2819F15F3F11F4A0
:102F00004F3FF9F0162F61111CC08091980120915C
:102F1000990136E0821709F466C090E0389FF0010D
:102F2000399FF00D1124E656FE4F7181571306C0EC
:102F30007081471303C07281711103C001968770BD
:102F4000E9CF162F662309F410C18091CF0181606B
:102F50008093CF0110E009C1751315C0341313C05D
:102F6000611111C08091CF01D70115968C93C701D3
:102F70000E94FE1586E0F701AAECB1E001900D92E7
:102F80008A95E1F763C04D875E878D859E856A8B44
:102F90000E9459166A898823D9F16623C9F12091C4
:102FA000CF01822F82958F7090E0029774F080910C
:102FB000CA019091CB0198878F831986DB86CA86D8
:102FC0002C87CE0107960E94FE1586E0F701AAEC39
:102FD000B1E001900D928A95E1F70E94AC160E9433
:102FE0009E1611E0C2C04D875E878D859E850E942A
:102FF000911B292F22952F7030E0223031050CF0E3
:10300000A8C09F7009F0A2C0805E883008F4ADC0EF
:10301000C7010E94FE15E5CFC816D90608F453C0B3
:10302000F601E81BF90BCF018436910508F450C076
:1030300010E07C2DD98AC88A89890E945E16EAEC44
:10304000F1E086E0DF011D928A95E9F70E949E1665
:103050008CC0751314C0341312C0611110C080915C
:10306000CF01F7018583C7010E94FE1586E0EAECD7
:10307000F1E0DF011D928A95E9F7102F76C04D87A8
:103080005E878D859E856A8B0E9459166A89882382
:1030900009F4BECF662309F4BBCF2091CF01822F64
:1030A00082958F7090E002970CF48FCF8091CA01C7
:1030B0009091CB019A8389831B82DD82CC822E83FF
:1030C000CE01019680CF809590958C0D9D1DACCF43
:1030D000162F662309F49CCF75130BC0341309C057
:1030E00086E0F701AAECB1E001900D928A95E1F734
:1030F0003CC04D875E878D859E850E945916811143
:1031000064CF8091CF0181608093CF01C7010E947D
:10311000FE152BC0662309F47BCF4D875E878D8516
:103120009E850E945916182F882309F471CF86E0D6
:10313000F701AAECB1E001900D928A95E1F78AECD3
:1031400091E00E945A120E94AC1680CF81115CCF90
:103150000CC0243031050CF05BCF9F7009F454CFC4
:10316000F7019581907F09F04FCF812F62960FB6BE
:10317000F894DEBF0FBECDBFDF91CF911F910F91AD
:10318000FF90EF90DF90CF9008951F93CF93DF9340
:10319000CDB7DEB72C970FB6F894DEBF0FBECDBF0C
:1031A0004F83588769877A878B879C87CE010796DC
:1031B0000E940717882369F08F8198852A853B85AF
:1031C000232BF1F19F3F09F063C08F3F09F060C0EE
:1031D00037C086E0FE013796DE01119601900D9210
:1031E0008A95E1F76F817885EA85FB85309741F113
:1031F0007F3F11F46F3F21F12091990130E0C90127
:103200000196877099274091980150E0841795079F
:1032100009F447C069837A83FD83EC8396E0929F2B
:10322000D001939FB00D1124A656BE4FFE013196DA
:1032300001900D929A95E1F7809399010E947D1675
:1032400016E080919801909199018917C1F1189F1A
:10325000C001112486569E4F0E940717882379F1DA
:10326000E09198011E9FF0011124E656FE4F408127
:10327000518162817381848195810E946D16809154
:10328000980190E001968770992780939801D9CF93
:103290004F81588569857A858B859C850E946D163E
:1032A000CFCF0E9433161092990110929801EAEC48
:1032B000F1E086E0DF011D928A95E9F7C1CF2C96F7
:1032C0000FB6F894DEBF0FBECDBFDF91CF911F9137
:1032D0000895EF92FF920F931F93CF93DF938C018A
:1032E000892B09F46CC0F12CEE24E394E8012196BB
:1032F000F8018491843740F4843008F051C0813063
:1033000081F0823019F15BC0853709F444C0A8F11F
:103310009CE7980F903708F052C08F770E94771380
:1033200041C00E5F1F4FFE01C49180E28C0F8830B8
:1033300048F4C7708E2D01C0880FCA95EAF70E9425
:10334000F31B14C08C2F0E9460122DC00E5F1F4F04
:10335000FE01C49180E28C0F883058F4C7708E2D26
:1033600001C0880FCA95EAF70E94F91B0E941C1C35
:103370001AC08C2F0E94771316C00E5F1F4FFE01DC
:10338000C491CC2381F08FE99FE00197F1F700C051
:103390000000C150F6CF0E5F1F4FFE01F49003C036
:1033A0000E9460128E018F2D882309F49FCFEFE9D0
:1033B000FFE03197F1F700C000008150F5CFDF91B9
:1033C000CF911F910F91FF90EF90089508950C9465
:1033D000E6190E94E7196093060270930702809332
:1033E0000802909309020C94251608950C94E9198B
:1033F0000F931F930091060210910702209108027B
:1034000030910902602B712B822B932B1F910F910E
:103410000C94E9190F931F93009106021091070273
:1034200020910802309109026023712382239323A3
:103430001F910F910C94E9190F931F9300910602AD
:10344000109107022091080230910902602771272C
:10345000822793271F910F910C94E91908950C94DA
:103460002E1A0E942F1A6093020270930302809317
:103470000402909305020C94251660E070E0CB01E5
:103480000C94311A0F931F9341E050E060E070E01C
:103490008A019B0104C0000F111F221F331F8A9550
:1034A000D2F7C901B8011F910F910C94311A0F93F3
:1034B0001F9341E050E060E070E004C0440F551FEE
:1034C000661F771F8A95D2F78091020290910302BE
:1034D000A0910402B09105028A019B01082B192BCF
:1034E0002A2B3B2BC901B8011F910F910C94311A63
:1034F0000F931F9341E050E060E070E004C0440F80
:10350000551F661F771F8A95D2F740955095609595
:1035100070958091020290910302A0910402B091F3
:1035200005028A019B01082319232A233B23C90191
:10353000B8011F910F910C94311A0F931F9341E022
:1035400050E060E070E004C0440F551F661F771F15
:103550008A95D2F78091020290910302A091040211
:10356000B09105028A019B01082719272A273B27CA
:10357000C901B8011F910F910C94311A0F931F9339
:103580000091020210910302209104023091050281
:10359000602B712B822B932B1F910F910C94311A5E
:1035A0000F931F93009102021091030220910402D5
:1035B0003091050260237123822393231F910F9181
:1035C0000C94311A0F931F93009102021091030281
:1035D00020910402309105026027712782279327EA
:1035E0001F910F910C94311A089528E0929F800D3D
:1035F0001124A82FA695A695A695877051E001C025
:10360000550F8A95EAF785E0A89FD001112420E0A4
:1036100030E070E0F901EA0FFB1FE053FE4F4081FC
:10362000CB01022E02C0969587950A94E2F781702D
:103630009927819584278523842780832F5F3F4F97
:103640002530310539F7089528E0929F800D112427
:10365000682F669566956695982F977085E0689FA8
:10366000B001112440E050E080E0FA01E60FF71FBE
:10367000E053FE4F208130E0092E02C03695279599
:103680000A94E2F721703327042E01C0220F0A9416
:10369000EAF7822B4F5F5F4F4530510531F70895B0
:1036A000BF92CF92DF92EF92FF920F931F93CF932F
:1036B000DF938C01C0900602D0900702E0900802D0
:1036C000F09009028091020290910302A0910402FD
:1036D000B0910502C82AD92AEA2AFB2ACFE1D0E014
:1036E000D701C6010C2E04C0B695A795979587956E
:1036F0000A94D2F780FF07C0BC2EB8018C2F0E941D
:103700007608019719F4219758F7B12C8B2DDF918A
:10371000CF911F910F91FF90EF90DF90CF90BF90CE
:103720000895CF93DF93EC010E94501BBE010E94CD
:103730007608DF91CF9108951F93CF93DF93EB012C
:1037400090919701992321F0CB010E94911B13C006
:10375000882349F0CB010E94501B182F682FCE01FF
:103760000E94F51A04C0CB010E94241B182FBE0131
:10377000812F0E947608DF91CF911F91089580914B
:103780000A02859585958595089580910A0287702E
:10379000089590910A02977081E009F480E00895FD
:1037A00080911602089590911602892B809316023B
:1037B00008958095909116028923809316020895AA
:1037C00010921602089590911502892B809315028C
:1037D000089580959091150289238093150208958C
:1037E00010921502089590911402892B809314026F
:1037F000089580959091140289238093140208956E
:1038000010921402089580910B02089508950C946B
:10381000061C90910B02981721F080930B020C94D8
:10382000071C089580910B02882329F010920B0247
:1038300080E00C94071C0895E0911001F0911101B3
:10384000809116028083E0911001F0911101908126
:1038500080911502892B8083E0911001F091110174
:10386000908180911402892B808380910B028823A0
:1038700081F0E0911001F09111019081892B8083FA
:1038800080911001909111010E94FC1C81110E94F5
:10389000121C80911001909111010C943011089527
:1038A0000C944F1C98E0899F90011124262B2093A3
:1038B0000A020E94571A80910A028595859585957E
:1038C0000C94501C10920A0280E00C94501C209121
:1038D0000A028095822380930A02982F977079F4C8
:1038E00030E0482F082E000C550B2417350739F00F
:1038F0008595859585950E94781A0C94621C08958B
:1039000080E090E00E94082521E08D3E9E4F09F066
:1039100020E0822F089582E090E00C94FA2483E066
:1039200090E00C94FA2484E090E00C94FA24682F40
:1039300084E090E00C940E25AB01BC018FE090E098
:103940000C942025AB01BC0183E190E00C94202570
:1039500060E070E0CB010C94A21C60E070E0CB0151
:103960000E949C1C0C94A81C6DEE7EEF80E090E001
:103970000E942C2560E082E090E00E940E2560E02D
:1039800083E090E00E940E2510920602109207023A
:10399000109208021092090260E084E090E00E9418
:1039A0000E2560E085E090E00E940E2560E086E054
:1039B00090E00E940E256FEF87E090E00E940E25B8
:1039C00040E050E0BA0188E090E00E94202560E0ED
:1039D0008DE090E00E940E2540E050E0BA0188E1C1
:1039E00090E00E94202560E087E190E00E940E2593
:1039F0000C94AD1C0C94B41CFC01329697E080E052
:103A0000915029F021912223D9F38F5FF9CF0895A6
:103A10009C01FC0132969FEF80E04191461789F0AE
:103A20009F3F19F4411101C0982F8F5F8630A9F78D
:103A30009F3F39F0F901E90FF11D97FDFA95628377
:103A400008950895FC01329608962081261301C03E
:103A500010823196E817F907C1F708950C94081DF4
:103A60000C94221D029626E0FC0111922A95E9F79A
:103A7000089508950C94391D0E943A1D80914B02BF
:103A8000843049F11092180220E488E190E00FB6EA
:103A9000F894A895809360000FBE2093600080E0AA
:103AA0000E943B060E943A1D83B7817F846083BFDA
:103AB00083B7816083BF7894889583B78E7F83BFF7
:103AC0000FB6F894A895809160008861809360009B
:103AD000109260000FBE089508950895CF930E943C
:103AE0006C1D0E9462050E946D1DC0E08C2F0E941B
:103AF000C705811104C0CF5FCA30C1F701C081E0A2
:103B0000CF91089508950C94821D0E9433160E944F
:103B100024110E943B060C94831D1F920F920FB636
:103B20000F9211248F939F93AF93BF9380911802AC
:103B3000811113C08091410290914202A0914302F1
:103B4000B09144024196A11DB11D80934102909312
:103B50004202A0934302B0934402BF91AF919F9160
:103B60008F910F900FBE0F901F90189582E084BD2B
:103B700093E095BD9AEF97BD80936E0008952FB79F
:103B8000F8948091410290914202A0914302B09139
:103B900044022FBF0895CF92DF92EF92FF920F93CE
:103BA0001F932FB7F89440914102509142026091C7
:103BB0004302709144022FBF6A017B01EE24FF246F
:103BC0008C0120E030E0C016D106E206F30610F4C6
:103BD000415051099A01281B390BC9011F910F91BE
:103BE000FF90EF90DF90CF90089578941F920F92FE
:103BF0000FB60F9211248F939F93AF93BF93809131
:103C0000410290914202A0914302B0914402019678
:103C1000A11DB11D8093410290934202A0934302E3
:103C2000B0934402BF91AF919F918F910F900FBEBF
:103C30000F901F90189581E08093E00080E28093C0
:103C4000D8001092C9008FE19EE40197F1F700C0FF
:103C5000000087E090EBDC018093540290935502C2
:103C6000A0935602B09357029CE088E10FB6F894F7
:103C7000A895809360000FBE90936000FFCF0E94D4
:103C8000801C811102C00E94FA1C0E948B1C809330
:103C900017020E94931C90E0909346028093450285
:103CA0000E948F1C682F70E080E090E00C94F61961
:103CB000809121020895089508950895CF93DF9388
:103CC000EC010E940620823011F0843039F581E049
:103CD0008093E9008FEF9091E800815095FD06C038
:103CE00095ED9A95F1F700008111F5CF8091E800EC
:103CF00085FF14C040E050E068E070E0CE010E9413
:103D000023208091E8008E778093E80088E0FE0110
:103D1000A9E1B2E001900D928A95E1F7DF91CF9190
:103D2000089580914A02811109C00E94B8210E9421
:103D300015228091E20084608093E2000895109241
:103D40004A020895089508950C94851D42E061EC9F
:103D500081E00C94322180914D02833009F460C0DF
:103D600030F4813071F0823009F499C008958A30BE
:103D700009F485C08B3009F46BC0893009F0A7C005
:103D800020C080914C02813A09F0A1C08091E800E6
:103D9000877F8093E8008091500290915102892B97
:103DA00021F468E089E192E003C060E080E090E007
:103DB00070E00E946E208091E8008B778093E8008D
:103DC000089580914C02813209F081C080915002A7
:103DD00090915102892B09F07AC08091E800877F89
:103DE0008093E8008091E80082FD05C080914B023D
:103DF0008111F8CF6CC02091F3008091F20090E027
:103E0000922B029729F48091F1008B7F813021F46D
:103E10008091F100809321028091E8008B7753C05C
:103E200080914C02813A09F052C0809150029091E9
:103E30005102892B09F04BC08091E800877F809365
:103E4000E8008091E80080FFFCCF80911C0136C023
:103E500080914C028132D9F58091500290915102AB
:103E6000892BA9F58091E800877F8093E8000E9464
:103E7000672180914E0280931C010C94331680912F
:103E80004C02813221F58091E800877F8093E80021
:103E90000E94672180914F028093220208958091B1
:103EA0004C02813AA1F48091E800877F8093E8007A
:103EB0008091E80080FFFCCF809122028093F10086
:103EC0008091E8008E778093E8000C946721089534
:103ED00084B7877F84BF0FB6F894A895809160005F
:103EE000886180936000109260000FBE80E880932C
:103EF0006100109261000E9474110E94B8210E941A
:103F000015228091E20084608093E20078940E9400
:103F1000A4240E947C1182E191E00E941F118091F3
:103F20004B02853069F40E943C1D80914902882330
:103F3000B1F30E946E1D882391F30E940D20EFCFF4
:103F40000E9486110E94B50FEACF0C94A71F292F5B
:103F5000332723303105C1F05CF42130310579F08D
:103F600022303105D1F582E290E02DEC34E039C009
:103F70002132310521F12232310541F12EC082E199
:103F800090E02FEE34E02DC099278130910571F03B
:103F90002CF4892B11F5E9ECF4E00DC08230910589
:103FA00041F00397D1F4E1EAF4E005C0E7EBF4E077
:103FB00002C0E7EAF4E0849190E09F0112C0672B11
:103FC00061F489E090E02FED34E00BC0672B29F419
:103FD00080E490E021E035E004C080E090E020E063
:103FE00030E0FA013183208308950895CF93C82FDC
:103FF0000E94F51FC0932302CF91089580914B0238
:10400000843011F081E0089582E0089580912302C8
:10401000811102C00C94FE1F089580E189BD82E1E8
:1040200089BD09B400FEFDCF8091D8008F7D8093BB
:10403000D8008091E00082608093E0008091E000F1
:1040400081FDFCCF0895CF92DF92EF92FF920F9304
:104050001F93CF93DF93EC018B016A010E948621AD
:10406000811133C0C114D10439F0F60180819181EE
:10407000081B190BC80FD91FE12CF12C01151105D4
:1040800019F18091E80085FD16C08091E8008E77D7
:104090008093E800C114D10449F0F6018081918138
:1040A000E80EF91EF182E08285E00FC00E948621B1
:1040B000882321F30AC089918093F10001501109EE
:1040C000FFEFEF1AFF0ADACF80E0DF91CF911F9167
:1040D0000F91FF90EF90DF90CF90089520915202C2
:1040E000309153022617370748F06115710539F4EE
:1040F0002091E8002E772093E80001C0B90140E04C
:1041000061157105A9F120914B02222309F443C0E6
:10411000253009F442C02091E80023FD40C02091E1
:10412000E80022FD32C02091E80020FFE9CF409155
:10413000F3002091F20030E0342BFC01CF01611537
:10414000710559F02830310540F481918093F100D8
:10415000615071092F5F3F4FF1CF41E028303105A9
:1041600009F040E02091E8002E772093E800C8CFC6
:104170004111C9CF0AC080914B02882361F085307C
:1041800061F08091E80083FD0AC08091E80082FF21
:10419000F2CF80E0089582E0089583E0089581E001
:1041A000089520915202309153022617370748F0A4
:1041B0006115710539F42091E8002E772093E8000D
:1041C00001C0B901FC0120E06115710591F18091F8
:1041D0004B02882309F440C0853009F43FC0809128
:1041E000E80083FD3DC08091E80082FD2FC08091F2
:1041F000E80080FFE9CF2091F3008091F20090E089
:10420000922B6115710559F08830910540F4249185
:104210002093F1003196615071090196F2CF21E0AF
:10422000089709F020E08091E8008E778093E800FD
:10423000CBCF2111CCCF0AC080914B02882361F0F3
:10424000853061F08091E80083FD0AC08091E8002C
:1042500082FFF2CF80E0089582E0089583E0089520
:1042600081E00895982F973058F59093E9009817BA
:1042700039F07091EC002091ED005091F00003C0F6
:10428000242F762F50E021FF19C03091EB003E7FA4
:104290003093EB003091ED003D7F3093ED00309195
:1042A000EB0031603093EB007093EC002093ED0055
:1042B0005093F0002091EE0027FF07C09F5FD3CFFF
:1042C0008F708093E90081E0089580E008958091E7
:1042D0004C0287FF11C08091E80082FD05C08091EB
:1042E0004B028111F8CF11C08091E8008B770BC091
:1042F00080914B02882349F08091E80080FFF8CF3D
:104300008091E8008E778093E80008952091E40082
:104310003091E50095E64091EC00842F817040FFDC
:1043200022C08091E80080FD1CC080914B02882350
:1043300091F0853091F08091EB0085FD10C04091A7
:10434000E4005091E5004217530729F39A01915078
:1043500011F784E0089582E0089583E0089581E0F4
:10436000089580E008954091E80042FFDECF08956F
:104370000E9426220E942E22E0EEF0E080818160E1
:104380008083E8EDF0E080818F77808319BCA7ED12
:10439000B0E08C918E7F8C9380818F7E8083109291
:1043A0004A0208950F931F93CF93DF930E94262212
:1043B0000E942E22C8EDD0E088818F778883888183
:1043C0008068888388818F7D888319BC10924B0216
:1043D00010924702109249021092480200EE10E03B
:1043E000F80180818B7F808388818160888342E0AF
:1043F00060E080E00E943221E1EEF0E080818E7F7B
:104400008083E2EEF0E0808181608083808188603B
:104410008083F80180818E7F80838881806188839A
:10442000DF91CF911F910F910895E8EDF0E0808129
:104430008F7E8083E7EDF0E080818160808384E07F
:1044400082BF81E080934A020C94D221E8EDF0E033
:1044500080818E7F80831092E20008951092DA00AE
:104460001092E10008951F920F920FB60F9211243F
:104470002F933F934F935F936F937F938F939F936C
:10448000AF93BF93EF93FF938091E10082FF0BC046
:104490008091E20082FF07C08091E1008B7F8093D2
:1044A000E1000E94A3248091DA0080FF1FC0809168
:1044B000D80080FF1BC08091DA008E7F8093DA00E5
:1044C0008091D90080FF0DC080E189BD82E189BD66
:1044D00009B400FEFDCF81E080934B020E94911E43
:1044E00005C019BC10924B020E949F1E8091E100F2
:1044F00080FF19C08091E20080FF15C08091E2002A
:104500008E7F8093E2008091E20080618093E200E0
:104510008091D80080628093D80019BC85E0809398
:104520004B020E94A31E8091E10084FF30C0809165
:10453000E20084FF2CC080E189BD82E189BD09B41D
:1045400000FEFDCF8091D8008F7D8093D8008091B0
:10455000E1008F7E8093E1008091E2008F7E809366
:10456000E2008091E20081608093E2008091470246
:10457000882311F084E007C08091E30087FD02C02A
:1045800081E001C083E080934B020E94A41E8091D1
:10459000E10083FF29C08091E20083FF25C0809164
:1045A000E100877F8093E10082E080934B021092CC
:1045B00047028091E1008E7F8093E1008091E200CC
:1045C0008E7F8093E2008091E20080618093E20020
:1045D00042E060E080E00E9432218091F00088603B
:1045E0008093F0000E94A21EFF91EF91BF91AF91C6
:1045F0009F918F917F916F915F914F913F912F91FB
:104600000F900FBE0F901F9018951F920F920FB62C
:104610000F9211242F933F934F935F936F937F9348
:104620008F939F93AF93BF93CF93DF93EF93FF93BA
:10463000C091E900CF708091EC00D82FD17080FD3F
:10464000D0E81092E9008091F000877F8093F0001D
:1046500078940E9449231092E9008091F0008860CC
:104660008093F000CD2BCF70C093E900FF91EF91C4
:10467000DF91CF91BF91AF919F918F917F916F917A
:104680005F914F913F912F910F900FBE0F901F9010
:1046900018951F93CF93DF93CDB7DEB7AA970FB6C8
:1046A000F894DEBF0FBECDBFECE4F2E088E08E0FE1
:1046B0009091F10091938E13FBCF0E94AB1E8091DD
:1046C000E80083FF28C180914C0290914D02492F50
:1046D00050E04A30510508F01EC1FA01E556FF4F7F
:1046E0000C94E724803821F0823809F014C108C006
:1046F0008091480290914902992389F082600FC00D
:10470000809150028F70873008F005C18093E900D6
:104710008091EB0085FB882780F91092E900909149
:10472000E800977F9093E8008093F1001092F100E9
:10473000D0C0282F2D7F09F0EEC0882319F08230D9
:1047400061F0E9C080914E02813009F0E4C09330FD
:1047500009F080E0809349022EC080914E028111C1
:104760002AC0809150028F702FEF280F263008F05A
:10477000D2C08093E9002091EB0020FF1CC0933051
:1047800021F48091EB00806214C09091EB00906165
:104790009093EB0021E030E0A90102C0440F551FC7
:1047A0008A95E2F74093EA001092EA008091EB00CC
:1047B00088608093EB001092E9008091E800877F89
:1047C0008093E8000E946721A6C08111A4C01091C7
:1047D0004E021F778091E3008078812B8093E30065
:1047E0008091E800877F8093E8000E946721809194
:1047F000E80080FFFCCF8091E30080688093E300B5
:10480000111102C082E001C083E080934B0283C09B
:104810008058823008F07FC080914E0290914F0204
:104820008C3D53E0950779F583E08A838AE289839A
:104830004FB7F894DE01139620E03EE051E2E32FFB
:10484000F0E050935700E49120FF03C0E295EF7031
:104850003F5FEF708E2F90E0EA3010F0C79601C0F6
:10486000C0968D939D932F5F243149F74FBF809160
:10487000E800877F8093E8006AE270E0CE0101964D
:104880000E946E2015C06091500270915102AE01DD
:104890004F5F5F4F0E94A51FBC01892BE1F19091F2
:1048A000E800977F9093E80089819A810E94D12047
:1048B0008091E8008B778093E8002DC0803859F50F
:1048C0008091E800877F8093E80080914702809381
:1048D000F1008091E8008E7773CF81111CC0909118
:1048E0004E029230C0F48091E800877F8093E80008
:1048F000909347020E94672180914702811106C070
:104900008091E30087FD02C081E001C084E08093D4
:104910004B020E94A61E8091E80083FF0AC080918E
:10492000E800877F8093E8008091EB0080628093AD
:10493000EB00AA960FB6F894DEBF0FBECDBFDF9195
:10494000CF911F9108950895CF9380914B028823B2
:10495000A1F0C091E900CF709091EC00892F817097
:1049600090FD80E8C82B1092E9008091E80083FD5B
:104970000E944923CF70C093E900CF910895AA1BEC
:10498000BB1B51E107C0AA1FBB1FA617B70710F03A
:10499000A61BB70B881F991F5A95A9F7809590956C
:1049A000BC01CD01089597FB072E16F4009407D0A3
:1049B00077FD09D00E94BF2407FC05D03EF49095F6
:1049C00081959F4F0895709561957F4F0895EE0FE3
:1049D000FF1F0590F491E02D0994FC0141505040D7
:1049E00030F001900616D1F73197CF01089588274E
:1049F00099270895F999FECF92BD81BDF89A99271C
:104A000080B50895A6E1B0E044E050E00C94342570
:104A1000A8E1B0E042E050E00C943425262FF9994B
:104A2000FECF92BD81BDF89A019700B4021639F00D
:104A30001FBA20BD0FB6F894FA9AF99A0FBE0895DE
:104A40000396272F0E940F250E940E25252F0E94D6
:104A50000F25242F0C940F250196272F0E940F2538
:104A60000C940E25DC01CB01FC01F999FECF06C0A8
:104A7000F2BDE1BDF89A319600B40D92415050401C
:084A8000B8F70895F894FFCF88
:104A8800050101020801191A1B1C1D1E1F202122E5
:104A98000C02581E5E1E5B1E5C1E5D1E01943331A7
:104AA800F73236F6F56697C6343500000000000088
:104AB80001020202020606060909090909090F0F7F
:104AC8000F0F0F0F15151518191919191919191983
:044AD8001919232461
:00000001FF
